:020000040800F2
:1000000080A20020B902000835560008B91800087F
:1000100031560008EF0A00088F6B0008000000004E
:1000200000000000000000000000000021020008A5
:10003000950D00080000000065020008315C000812
:10004000D3020008D3020008D3020008D30200083C
:10005000D3020008D3020008D3020008D30200082C
:10006000D3020008D3020008D3020008D30200081C
:10007000D3020008D3020008D3020008D30200080C
:10008000D3020008D3020008D3020008D3020008FC
:10009000D3020008D3020008D3020008D3020008EC
:1000A000D3020008D3020008D3020008D3020008DC
:1000B000D3020008A15C0008D3020008D3020008A4
:1000C000D3020008D3020008D3020008D3020008BC
:1000D000D30200086D690008D3020008D3020008AB
:1000E000D3020008D3020008D3020008D30200089C
:1000F000D3020008D3020008D3020008D30200088C
:10010000D3020008D3020008D3020008D30200087B
:10011000D3020008D3020008D3020008D30200086B
:10012000D3020008D3020008D3020008D30200085B
:1001300000F002F800F065F80AA090E8000C824494
:100140008344AAF10107DA4501D100F05AF8AFF271
:10015000090EBAE80F0013F0010F18BFFB1A43F0A5
:1001600001031847ECEF03000CF003000A444FF0C2
:10017000000C10F8013B13F0070408BF10F8014B06
:100180001D1108BF10F8015B641E05D010F8016B4B
:10019000641E01F8016BF9D113F0080F1EBF10F8AF
:1001A000014BAD1C0C1B09D16D1E58BF01F801CBD2
:1001B000FAD505E014F8016B01F8016B6D1EF9D555
:1001C0009142D6D37047000000230024002500266A
:1001D000103A28BF78C1FBD8520728BF30C148BFAA
:1001E0000B607047642900F06981782900F0A281D2
:1001F000732900F0A983002070471FB51FBD10B5FB
:1002000010BD00F0C3FB1146FFF7F7FF2FF0C8FC4D
:1002100000F0E1FB03B4FFF7F2FF03BC08F088FE37
:10022000224B19680868B0E8F00F80F30988BFF323
:100230006F8F4FF0000080F311884EF00D0E704765
:100240000000000006480068006880F3088862B675
:1002500061B6BFF34F8FBFF36F8F00DF00BF00BFEA
:1002600008ED00E0EFF30980BFF36F8F0F4B1A68C2
:1002700020E9F00F106008B54FF0500080F31188AE
:10028000BFF34F8FBFF36F8F37F0DAF84FF00000F6
:1002900080F31188BDE8084019680868B0E8F00FDD
:1002A00080F30988BFF36F8F704700BF780200208A
:1002B000EFF3058070470000094880470948004770
:1002C000FEE7FEE7FEE7FEE7FEE7FEE7FEE7FEE706
:1002D000FEE7FEE704480549054A064B7047000063
:1002E000415C000831010008809C002080A20020B1
:1002F000809E0020809E0020704753EA020C00F090
:1003000069802DE9F04B4FF00006002B1FBFB3FAB8
:1003100083F503FA05F424FA05F65E4012BF16438E
:10032000B2FA82F502FA05F4C5F120051EBF22FAE1
:1003300005FC44EA0C04203556EA044C4FEA144408
:1003400018BF641C4FF000084FF00009904271EB99
:10035000030C39D3002919BFB1FA81F701FA07F666
:10036000B0FA80F700FA07F6C7F120071EBF20FA9F
:1003700007FC46EA0C062037B6FBF4FCA7EB0507A2
:10038000103F07F01F0BCBF120060CFA0BFB2CFAE9
:1003900006F644BFB3460026202FA4BF5E464FF0AA
:1003A000000B5BEA060C08BF4FF0010B19EB0B09C1
:1003B000ABFB027C48EB0608C01B06FB02CC0BFB28
:1003C00003CC71EB0C01C1E70B460246414648469F
:1003D000BDE8F08B13B54FF000004FF00001AFF314
:1003E0000080BDE81C4070470FB4044910B503AA53
:1003F000029800F0ADFA10BC5DF814FB700000200C
:100400002DE9F0410E460446002020622046E168B6
:10041000884730B3252805D0D4E901219047206AC8
:10042000401CF2E7E168204600278847050018D005
:10043000A5F14100192802D820354FF40067324653
:10044000294620462760FFF7CDFE40B1012804D0A1
:10045000F61D26F007060836D8E7361DD6E72846EB
:10046000DAE7206ABDE8F08170B50C460546012A3E
:1004700005D02878800600D5EA69002302E0012330
:1004800005E05B1C934202D2E05C0028F9D1A86928
:10049000E618C01AA861286A184428622846AFF3F3
:1004A000008004E0D5E9012114F8010B9047B44223
:1004B000F8D32846AFF3008070BD00002DE9F0416D
:1004C0000646002410687529314616A510D0AFF3F2
:1004D0000080002802DA404213A507E031688A074D
:1004E00001D512A502E0490704D511A5012401E0B8
:1004F000AFF3008000210A2206F1240709E0B0FBD7
:10050000F2FCB0FBF2F302FB1C00303078541846CA
:10051000491C0028F3D123462A463046BDE8F04165
:1005200000F08FB9000000002D0000002B0000003B
:100530002000000070B504460D4621461068AFF358
:1005400000802188090502D50F4A7A4402E00E4A4C
:100550007A440E32002104F1240305E000F00F0676
:100560000009965D5E54491C0028F7D120780023CD
:10057000000704D5702D02D009B1022311322046A4
:10058000BDE8704000F05DB9EEE5030040EA01030C
:10059000024630B59B0710D14FF0013400E008C28D
:1005A00008C91D1B9D4315EAC41FF8D013F0FF01B5
:1005B00002F8011B0DD01B0AF8E711F8013B002BD4
:1005C00002F8013B05D011F8013B002B02F8013B7A
:1005D000F3D130BD10B5431C02E010F8011B71B11E
:1005E0008107FAD14FF0013202C88C1A8C4314EA09
:1005F000C211F9D0C01A0A0603D0C01E10BDC01A1D
:1006000010BD0A0401D0801E10BD0902FCD0401E9E
:1006100010BD032A40F2308010F0030C00F015806A
:1006200011F8013BBCF1020F624498BF11F801CBF5
:1006300000F8013B38BF11F8013BA2F1040298BF5A
:1006400000F801CB38BF00F8013B11F0030300F0C4
:100650002580083AC0F0088051F8043B083A51F868
:1006600004CBA0E80810F5E7121D5CBF51F8043B6D
:1006700040F8043BAFF30080D20724BF11F8013BE0
:1006800011F801CB48BF11F8012B24BF00F8013B42
:1006900000F801CB48BF00F8012B704710B5203A95
:1006A000C0F00B80B1E81850203AA0E81850B1E82B
:1006B0001850A0E81850BFF4F5AF5FEA027C24BFE1
:1006C000B1E81850A0E8185044BF18C918C0BDE8D8
:1006D00010405FEA827C24BF51F8043B40F8043BA1
:1006E00008BF7047D20728BF31F8023B48BF11F856
:1006F000012B28BF20F8023B48BF00F8012B7047B0
:1007000002F0FF0343EA032242EA024200F002B889
:100710004FF000020429C0F0128010F0030C00F02A
:100720001B80CCF1040CBCF1020F18BF00F8012BA8
:10073000A8BF20F8022BA1EB0C0100F00DB85FEA76
:10074000C17C24BF00F8012B00F8012B48BF00F842
:10075000012B70474FF0000200B5134694469646B1
:10076000203922BFA0E80C50A0E80C50B1F12001C4
:10077000BFF4F7AF090728BFA0E80C5048BF0CC072
:100780005DF804EB890028BF40F8042B08BF7047D0
:1007900048BF20F8022B11F0804F18BF00F8012B42
:1007A000704700004FF0013C50F8042B51F8043B17
:1007B0009A4221D1A2EB0C03934313EACC1317D135
:1007C00050F8042B51F8043B9A4215D1A2EB0C03CC
:1007D000934313EACC130BD150F8042B51F8043B8C
:1007E0009A4209D1A2EB0C03934313EACC13DBD05A
:1007F0004FF00000704700BFD01A01BAB1FA81F182
:1008000001F0180122FA01F0CB40C1F12001DBB266
:10081000C0B2C01A2CFA01F3D11A914311EAC311E4
:10082000E6D17047704770477047704710B500F0C9
:10083000A1F8006810BD10B5044600F09BF80460F4
:1008400010BD2DE9F0470D4699469246044600F149
:1008500024080168880604D5E06921F010012160B0
:1008600000E00120A84201DD471B00E00027A1694C
:100870007A1902EB0900081AA0612078C00602D498
:100880002046AFF30080002608E0D4E901211AF8E1
:1008900006009047206A401C761C20624E45F4DB1F
:1008A0002078C0060AD52046AFF3008006E0D4E9E0
:1008B000012130209047206A401C2062381EA7F199
:1008C0000107F4DC07E0D4E9012118F8050090479E
:1008D000206A401C2062281EA5F10105F3DC204699
:1008E000AFF300802078000602D50220BDE8F08733
:1008F0000120FBE701694A1C02610878704700B5D6
:100900008FB0CDE901310021059105497944CDE948
:10091000031011466846FFF773FD0FB000BD0000DD
:10092000E5FFFFFF10B5436913B1AFF3008001E0AD
:10093000FFF79AFD012010BD127800F124010A7022
:1009400000224A700122EDE711684FF0FF32E9E71B
:10095000074B70B50D467B44FFF7D1FF0446284690
:1009600000F00CF810B14FF0FF3070BD204670BDA4
:100970001F48010000487047209C0020007B00F0C9
:100980008000704700487047209C00207546FFF7A4
:10099000F9FFAE4605006946534620F0070085463C
:1009A00018B020B5FFF796FCBDE820404FF00006D8
:1009B0004FF000074FF000084FF0000B21F0070147
:1009C000AC46ACE8C009ACE8C009ACE8C009ACE88A
:1009D000C0098D46704710B50446AFF3008020462D
:1009E000BDE81040FFF716BC10B500F08FFF10BD3A
:1009F0002DE9F04107460C460026002509E03602A5
:100A00003919491B491E88B200F008F80644681CD1
:100A1000C5B2A542F3DB3046BDE8F08170B50446AF
:100A2000002601F027F82546E11704EB11610912B1
:100A3000A02202EB4101C8B200F0E8FF01F066F825
:100A4000E11704EB11610912A4EB0121C8B200F017
:100A5000DDFF01F05BF801F00DF8A12000F0D6FFFA
:100A600001F054F8002000F099FF064601F028F844
:100A7000304670BD2DE9F04105460E46174600246C
:100A800009E0E20026FA02F2D1B22A1990B200F08F
:100A900006F8601CC4B2BC42F3DBBDE8F08170B55F
:100AA00004460E4600F0E6FF2546E11704EB11610F
:100AB0000912A02202EB4101C8B200F0A7FF01F029
:100AC00025F8E11704EB11610912A4EB0121C8B26A
:100AD00000F09CFF01F01AF8304600F097FF01F09B
:100AE00015F800F0EDFF0A200AF0ECFE70BD00BF23
:100AF000FEE710B50A200AF005FF10BD10B5002072
:100B00000E4908600E48006820F470400C490860E7
:100B10000846006840F44050086000200949C1F8C8
:100B20008C01FFF7E6FF012004490860FFF7E1FFB1
:100B300000200449C1F8800110BD0000800122425C
:100B400000100140000022420F48806940F0100070
:100B50000D4988610D4800684FF20F0188430B4929
:100B600008600846006843F203010843074908602B
:100B70000846C06840F00200C8600846C06840F0FF
:100B80000800C860704700000010024000100140DB
:100B900010B500200E4908600E48006820F470402F
:100BA0000C4908600846006840F440500860012085
:100BB0000949C1F88C01FFF79CFF01200449086036
:100BC000FFF797FF00200449C1F8800110BD000025
:100BD00080012242001001400000224270B505460B
:100BE00000241548006820F4704013490860084646
:100BF000006840F400400860002613E000200F4920
:100C000008601E200AF07EFE01200D49C1F8800117
:100C10006006040E09487438006808B1601CC4B24C
:100C2000701CC6B2082EE9DB15B9FFF7B1FF01E071
:100C3000FFF764FF204670BD001001408001224292
:100C40000000224270B504461248006820F470404B
:100C5000104908600846006840F4405008600020D1
:100C60000D490860002512E0E0090B490C310860CD
:100C70006006040E01200949C1F88001FFF739FF21
:100C8000002005490860FFF734FF681CC5B2082D35
:100C9000EADB70BD001001408001224200002242C8
:100CA00010B50E48006820F470400C4908600846F2
:100CB000006840F440500860012009490860094973
:100CC000C1F88001FFF715FF002005490860FFF714
:100CD00010FF00200349C1F8800110BD0010014041
:100CE0008C0122420000224210B50E48006820F418
:100CF00070400C4908600846006840F440500860A5
:100D00000020094908600949C1F88C01FFF7F1FE8C
:100D1000012005490860FFF7ECFE01200349C1F8F6
:100D20008C0110BD001001408001224200002242CF
:100D300010B500241448006820F47040124908607F
:100D40000846006840F40040086001200F49086030
:100D50000AF0D8FD01200E49C1F880010AF0D2FD49
:100D600007E0601CC4B2FA2C03DDFFF7BDFF0120D1
:100D700010BD0648803800680028F2D103490C39BC
:100D8000086000BFF4E70000001001408C0122421F
:100D900000002242704700000EB50121102004F02F
:100DA00045FE4FF40050ADF8000010208DF8030010
:100DB00003208DF802006946424800F0A8FA4FF47B
:100DC0000051404800F081FB0220ADF800004820AF
:100DD0008DF8030069463B4800F099FA0221394832
:100DE00000F073FBFFF7B0FE0020374908601420C5
:100DF0000AF068FD01203549C1F8B40132200AF03B
:100E000061FD00208DF80400012201A900F056FACE
:100E1000012201A9A42000F051FA16208DF8040047
:100E2000012201A9802000F049FA0C208DF804006D
:100E3000012201A9882000F041FA022201A9A12083
:100E400000F054F89DF8040030280DD19DF80500FD
:100E5000032809D19DF805009DF8042000EB02212C
:100E60001BA0FFF7C1FA2AE0042201A948F24010B2
:100E700000F0C2FB00208DF8080001A917A0FFF7C1
:100E8000B3FA19480199016002208DF8040001228B
:100E900001A948F2400000F0E1FC012201A948F25A
:100EA000470000F0A9FB0A200AF00CFD00208DF895
:100EB0000400012201A948F2400000F0CFFC00200C
:100EC0000EBD000000100140B40122420000224289
:100ED0004354502049443A25780D0A004354502089
:100EE00049443A25730D0A00650000202DE9F041C0
:100EF00006460F461546FFF7D3FE7020FFF7A2FE09
:100F0000FFF716FFF0B2FFF79DFEFFF711FFFFF7A7
:100F1000C7FE7120FFF796FEFFF70AFF00240BE0E3
:100F2000691EA14201D0012100E000210846FFF71F
:100F300055FE3855601CC4B2AC42F1DBFFF7D4FE5D
:100F4000BDE8F08171B583B0002001900026D34840
:100F50000078401CD1490870084600780A2190FBAF
:100F6000F1F201FB120018B1CC4800780A287DDAB2
:100F7000CBA1CC48FFF716FCD8B9012203A948F24F
:100F80004E1000F039FB9DF80C0000F08000A8B175
:100F90009DF80C0000F00F00C349097888420DDC71
:100FA00000200190012201A948F24E1000F056FCE9
:100FB00004E0012203A90220FFF798FF9DF80C002E
:100FC00000F00F00002851D09DF80C0000F00F0039
:100FD000B5490978884249DC9DF80C0000F00F0102
:100FE000FF208840C4B2B14890F82050E043C0B21E
:100FF00040F0C000AD4981F8200008468289AA4827
:101000000078401E0C3121F81020A848C28AA6485A
:101010000078401E0A3121F8102004200AF052FC0A
:1010200000200190ABE0A14890F820009DF804203A
:1010300001219140084000282FD099A19948FFF73D
:10104000B1FBE8BB9A499DF8042031F81200042254
:1010500002A900F0D1FA954890F8300000F00100A4
:10106000E0B19DF808009DF8091000E0C5E000EB34
:10107000012081B28D480C309DF8042020F8121018
:101080009DF80A009DF80B1000EB012081B2874803
:1010900016309DF8042020F812106BE09DF808002F
:1010A0009DF8091000EB012081B2804816309DF8B0
:1010B000042020F812109DF80A009DF80B1000E0A3
:1010C0000CE000EB01207B490988081A81B27748BF
:1010D0000C309DF8042020F812104BE076499DF862
:1010E000042031F81200042202A9FFF7FFFE6F4826
:1010F00090F8300000F00100E0B19DF809009DF883
:10110000081001F00F0100EB0120684916319DF82D
:10111000042021F812009DF80B009DF80A1001F040
:101120000F0100EB012061490C319DF8042021F8EA
:1011300012001FE09DF809009DF8081001F00F0152
:1011400000EB01205B490988081A81B257480C302E
:101150009DF8042020F812109DF80B009DF80A104D
:1011600001F00F0100EB0120504916319DF80420D9
:1011700021F812009DF80400401CC0B201909DF8B7
:101180000400494909788842FFF64DAF01264748D7
:10119000808948490988884205DC4448C08A454915
:1011A0004988884226DD9DF80C0000F00F000128D8
:1011B0000ADD3E48C0893D4988810846008BC882C7
:1011C00000203649087018E037480078401E37493B
:1011D0000C3131F810000C39888133480078401EFA
:1011E000163131F810001639C8828020039081F83A
:1011F000205002E000202949087029A12948FFF762
:10120000D1FA08BB9DF80C0000F08F0080283BD17C
:10121000264890F8200000F0800040B1234890F864
:10122000200020F08000214981F820002CE04FF6BA
:10123000FF701E498881C882084690F8200000F09F
:10124000E00081F820001FE09DF80C0000F01F0076
:10125000D0B9164890F8200000F0800040B1134843
:1012600090F8200020F08000104981F820000BE069
:101270004FF6FF700D498881C882084690F820001B
:1012800000F0E00081F8200004480078F02802DD3A
:101290000A2002490870304604B070BD6B0000207F
:1012A00039313100650000206A000020280000204C
:1012B000D0A9030814030020C6A903082DE9F041B2
:1012C00005460E4617464FF00008FFF7E9FC702070
:1012D000FFF7B8FCFFF72CFDE8B2FFF7B3FCFFF710
:1012E00027FD00240BE0305DFFF7ACFCFFF720FD8D
:1012F0008046B8F1000F00D003E0601CC4B2BC42CD
:10130000F1DB00BFFFF7F0FC4046BDE8F0812DE9BE
:10131000F04102460025002600200023002400277B
:1013200091F803C00CF00F0591F803C00CF0100CFD
:10133000BCF1000F03D091F802C04CEA050591F80A
:1013400000C0BCF1000F31D0146800202BE04FF03A
:10135000010C0CFA00F3B1F800C00CEA03069E423F
:1013600020D183004FF00F0C0CFA03F7BC4305FAB1
:1013700003FC4CEA040491F803C0BCF1280F06D129
:101380004FF0010C0CFA00FCC2F814C00AE091F80E
:1013900003C0BCF1480F05D14FF0010C0CFA00FC62
:1013A000C2F810C0401C0828D1D31460B1F800C0A6
:1013B000BCF1FF0F34DD546800202EE000F1080C72
:1013C0004FF0010808FA0CF3B1F800C00CEA03066C
:1013D0009E4221D183004FF00F0C0CFA03F7BC435F
:1013E00005FA03FC4CEA040491F803C0BCF1280F91
:1013F00005D100F1080C08FA0CF8C2F8148091F835
:1014000003C0BCF1480F07D100F1080C4FF00108F0
:1014100008FA0CF8C2F81080401C0828CED354609B
:10142000BDE8F081F0B50A46002300240021002524
:1014300000F00046B6F1004F02D11D4EF16901E007
:101440001B4E7168C0F3034583B200F44016B6F535
:10145000401F08D121F07061154E766826F0706645
:10146000134F7E6012E000F48016B6F5801F06D19F
:10147000032606FA05F4A14341F0706106E0460D2B
:10148000360103FA06F6B14341F0706122B1460D10
:10149000360103FA06F6314300F00046B6F1004F7C
:1014A00002D1034EF16101E0014E7160F0BD000018
:1014B0000000014002460020D3680B400BB1012020
:1014C00000E00020704741617047016170470000F3
:1014D0000EB50121102004F0A9FA42F20200ADF885
:1014E000000010208DF8030003208DF802006946EB
:1014F0003448FFF70CFF02213248FFF7E6FF4FF4B4
:1015000000513048FFF7E1FFFFF71EFB00202E4996
:1015100008600A200AF0D6F901202C49C1F8B4016C
:101520000A200AF0CFF90220ADF8000028208DF83B
:10153000030069462348FFF7EAFE02212148FFF72E
:10154000C2FF64200AF0BEF9042201A948F240104B
:1015500000F052F800208DF8080001A91CA0FEF749
:1015600043FF1EA101A8FFF71DF940BB02208DF823
:101570000400012201A948F2400000F06FF90122A5
:1015800001A948F2470000F037F89DF804006028F0
:1015900007DA9DF8041013A0FEF726FF012000F0E3
:1015A0002FF90A200AF08EF900208DF8040001229C
:1015B00001A948F2400000F051F900200EBD0020C2
:1015C000FCE7000000100140B4012242000022426A
:1015D0004354502049443A25730D0A0039313437B9
:1015E0000000000044656661756C74205665723AAF
:1015F00025640D0A000000002DE9F04105460F4664
:101600001646FFF74DFB2820FFF71CFBFFF790FB6A
:101610002812FFF717FBFFF78BFBE8B2FFF712FB6F
:10162000FFF786FBFFF73CFB2920FFF70BFBFFF7DB
:101630007FFB00240BE0711EA14201D0012100E0DC
:1016400000210846FFF7CAFA3855601CC4B2B442FC
:10165000F1DBFFF749FBBDE8F081000031B582B056
:101660000024002563480078401C62490870084641
:1016700000780A2190FBF1F201FB120018B15D48DD
:1016800000780A287DDA012202A948F24E10FFF7FD
:10169000B3FF9DF8080000F00F0000286BD09DF804
:1016A000080000F00F00062865DA9DF8080000F039
:1016B0000F01FF208840C0B200909DF80000C04399
:1016C000C0B240F0C0004C4981F82000002444E042
:1016D000494890F820000121A140084020B3474923
:1016E00031F81400042201A9FFF786FF424890F860
:1016F000300000F00100C0B19DF804009DF8051015
:1017000000EB012081B23C48163020F814109DF8FF
:1017100006009DF8071000EB0120C0F5487081B26B
:1017200035480C3020F8141015E09DF804009DF8A1
:10173000051000EB012081B22F480C3020F8141066
:101740009DF806009DF8071000EB012081B22A48A1
:10175000163020F81410601CC4B2052CB8DB01252B
:101760002548808920B92448C08A08B90020029001
:101770000020204908709DF8080000F0800000B1AA
:1017800000E00DE09DF8080000F00F00062807DAE1
:10179000002000900122694648F24E1000F05EF8E9
:1017A0009DF8080000F08F0080281AD1124890F8A8
:1017B000200000F0800040B10F4890F8200020F099
:1017C00080000D4981F820000BE04FF6FF700A49B8
:1017D0008881C882084690F8200000F0E00081F877
:1017E000200004480078F02802DD0A200149087032
:1017F00028463EBD6400002028000020BCA9030844
:1018000038B50546002400208DF800008DF8015001
:1018100000BF09E09DF800000F49095D0844C0B20F
:101820008DF80000601CC4B2B82CF3D39DF8000002
:10183000C043401CC0B28DF80000B822064948F2EF
:10184000470000F00BF80222694648F2FF0000F062
:1018500005F8002038BD000004A903082DE9F04177
:1018600004460E4617464FF00008FFF719FA2820E5
:10187000FFF7E8F9FFF75CFA2012FFF7E3F9FFF74B
:1018800057FAE0B2FFF7DEF9FFF752FA00250BE056
:10189000705DFFF7D7F9FFF74BFA8046B8F1000FFC
:1018A00000D003E0681CC5B2BD42F1DB00BFFFF70A
:1018B0001BFA4046BDE8F08100BFFEE710B50020EE
:1018C0000F4908600F48406820F470400D49486097
:1018D0000846406840F44050486000200A49C1F87A
:1018E000AC0102200AF00EF8012005490860022030
:1018F0000AF008F800200449C1F8B00110BD00004A
:10190000B0012242001001400000224208B501212E
:10191000102004F08BF84FF4C050ADF800001020F8
:101920008DF8030003208DF8020069460448FFF794
:10193000EEFC0120034908600349C1F8AC0108BD71
:1019400000100140B00122420000224210B50020E8
:101950000F4908600F48406820F470400D49486006
:101960000846406840F44050486001200A49C1F8E8
:10197000AC01022009F0C6FF0120054908600220E1
:1019800009F0C0FF00200449C1F8B00110BD0000FB
:10199000B0012242001001400000224270B505460D
:1019A00000241748406820F47040154948600846F4
:1019B000406840F400404860002616E000201149CD
:1019C0000860022009F09EFF01200F49C1F8B00114
:1019D0006006040E0B488438006808B1601CC4B26D
:1019E000012009F08FFF701CC6B2082EE6DB15B986
:1019F000FFF7ACFF01E0FFF761FF204670BD00007C
:101A000000100140B00122420000224270B504469D
:101A10001548406820F47040134948600846406803
:101A200040F440504860002010490860002517E04D
:101A3000E0090E49091F08606006040E022009F043
:101A400061FF01200A49C1F8B001022009F05AFFE4
:101A5000002006490860022009F054FF681CC5B246
:101A6000082DE5DB70BD000000100140B0012242EE
:101A70000000224210B50F48406820F470400D4924
:101A800048600846406840F44050486001200A49D8
:101A900008600A49C1F8B001042009F033FF0020B2
:101AA00005490860042009F02DFF00200349C1F812
:101AB000B00110BD00100140AC01224200002242E2
:101AC00010B50F48406820F470400D494860084642
:101AD000406840F44050486000200A4908600A49C4
:101AE000C1F8AC01042009F00DFF01200549086090
:101AF0000549C1F8AC01042009F004FF10BD000045
:101B000000100140B00122420000224210B5002422
:101B10001448406820F47040124948600846406804
:101B200040F40040486001200F49086009F0EAFED7
:101B300001200E49C1F8B00109F0E4FE07E0601C85
:101B4000C4B2FA2C03DDFFF7BBFF012010BD06482D
:101B5000803800680028F2D10349091D086000BFE1
:101B6000F4E7000000100140AC01224200002242D4
:101B700008B50121142003F059FF01211148FFF796
:101B800051FC4FF40040ADF8000048208DF80300F0
:101B900069460D48FFF7BBFB2020ADF80000482048
:101BA0008DF8030069460948FFF7B1FB0120ADF845
:101BB000000028208DF8030069460348FFF7A7FBC3
:101BC00008BD000000023000000801400010014084
:101BD00070B5044600260E4805884088454300211C
:101BE000084603F01DFA03F0BFFC00BF0DE04FF400
:101BF00080700849086140004861074804608020FF
:101C00004861086180000861761CAE42EFD370BD68
:101C100014030020001001400C0C01402DE9F84F86
:101C200007460D4690469946DDF828B0A8EB070018
:101C3000401C1FFA80FAA9EB0500401C80B20090FE
:101C4000002420E0281981B2384603F0E9F903F0B6
:101C50008BFC002613E04FF480700D4908614000B2
:101C6000486104FB0A603BF810000A4908608020C4
:101C700007494861086180000861701C86B25645BA
:101C8000E9DB601C84B200988442DBDBBDE8F88F9E
:101C9000001001400C0C014010B504464948847105
:101CA000002C45D1F020474908804FF4A0704880AF
:101CB0000846808845F21051884210D14FF43050C8
:101CC000404908814FF4285048814FF42C508881B6
:101CD0004FF4F07008804FF4487048801AE039489B
:101CE000808841F6631188420DD12C203549088146
:101CF0002B2048812A2088814FF4F07008804FF40F
:101D00004870488006E02C202E4908812A2048810E
:101D10002B2088812B48808845F2103188424CD195
:101D20004FF4A070274908804FF4F070488044E0D9
:101D30004FF4A07023490880F0204880084680882E
:101D400045F21051884210D14FF430501D4908819E
:101D50004FF4285048814FF42C5088814FF448703C
:101D600008804FF4F07048801AE01648808841F6E9
:101D7000631188420DD12C20124908812A20488104
:101D80002B2088814FF4487008804FF4F070488011
:101D900006E02C200B4908812A2048812B208881CD
:101DA0000848808845F21031884206D14FF4F0701F
:101DB000044908804FF4A0704880002002F060FFC2
:101DC00010BD0000140300202DE9FF4F84B08146B0
:101DD0008A460020039002900698A0EB0905079818
:101DE000A0EB0A06CDF80490CDF800A0002D01DD8F
:101DF000012705E00DB9002702E04FF0FF376D42E3
:101E0000002E02DD4FF0010806E016B94FF0000881
:101E100002E04FF0FF387642B54201DD2C4600E08B
:101E200034464FF0000B21E0009A91B2019A90B233
:101E300000F022F80398284403900298304402905E
:101E40000398A04205DD0398001B039001983844D5
:101E500001900298A04205DD0298001B02900098B4
:101E6000404400900BF101001FFA80FB601C834589
:101E7000DADD08B0BDE8F08F30B504460D462946DE
:101E8000204603F0CDF803F06FFB4FF48070074954
:101E900008614000486106480088064908608020C3
:101EA0000249486108618000086130BD00100140AE
:101EB000200000200C0C01402DE9F04306460F469F
:101EC0009046002445460320A0EB48093CE07A1BDD
:101ED00091B2321990B2FFF7CFFF3A1B91B272194B
:101EE00090B2FFF7C9FF3A1991B2721990B2FFF799
:101EF000C3FF7A1991B2321990B2FFF7BDFF7A1978
:101F000091B2321B90B2FFF7B7FF3A1991B2721B30
:101F100090B2FFF7B1FF7A1B91B2321B90B2FFF77C
:101F2000ABFF3A1B91B2721B90B2FFF7A5FF641C86
:101F3000B9F1000F03DAA000801D814404E0601BAA
:101F400080000A3081446D1EAC42C0DDBDE8F083E4
:101F500030B503460C4615469B48808845F2105123
:101F6000884250D19849488903F0ECFA4FF48070C8
:101F70009649086140004861181295490860802020
:101F8000924948610861800008618F494989491C6C
:101F900088B203F0D7FA4FF480708C490861400092
:101FA0004861D8B28A490860802088494861086140
:101FB000800008618449888903F0C4FA4FF4807076
:101FC00082490861400048612012814908608020F0
:101FD0007E4948610861800008617B498989491C04
:101FE00088B203F0AFFA4FF480707849086140007E
:101FF0004861E0B276490860802074494861086110
:1020000080000861C3E07048808841F6631188420F
:102010007DD16D48807920B96B480088401EC01A78
:1020200083B26949488903F08DFA4FF4807067499B
:1020300008614000486118126549086080206349C2
:1020400048610861800008614010086140004861F3
:10205000D8B25F49086080205C494861086180000F
:102060000861401008614000486118125849086032
:10207000802056494861086180000861401008616D
:1020800040004861D8B25249086080204F494861F9
:102090000861800008614C49888903F053FA4FF4C5
:1020A00080704A4908614000486120124849086030
:1020B000802046494861086180000861401008613D
:1020C00040004861E0B24249086080203F494861D1
:1020D00008618000086140100861400048612012DA
:1020E0003B490860802039494861086180000861E7
:1020F0004010086140004861E0B235490860802026
:102100003249486108618000086140E0FFE72E49DC
:10211000488903F017FA4FF480702C490861400099
:10212000486118122A4908608020284948610861DE
:10213000800008614010086140004861D8B224491D
:1021400008608020214948610861800008611E49BB
:10215000888903F0F7F94FF480701C49086140004A
:10216000486120121A4908608020184948610861B6
:10217000800008614010086140004861E0B21449E5
:1021800008608020114948610861800008614FF4AF
:1021900080700E494861400048610B4800890C4935
:1021A000086080200949486108618000086140108A
:1021B0000861400048610648056080204861086168
:1021C0008000086130BD00001403002000100140B1
:1021D0000C0C014008B50121192003F027FC012156
:1021E000FE48FFF71FF94FF4F860ADF8000010202B
:1021F0008DF8030003208DF802006946F848FFF7C8
:1022000086F84FF4F861F648FFF75FF94FF6FF7074
:10221000ADF800006946F348FFF779F84FF6FF7113
:10222000F048FFF752F9322009F04CFB0121002061
:1022300003F0A2F9322009F045FBD32003F082F924
:1022400002F084FCE849888002F080FCE64988803E
:1022500002F07CFCE4498880084680884FF6FF71D4
:1022600001EA0020E049888002F070FCDE4989889C
:102270000843DD4988800846808849F24131884218
:102280007DD0042003F05EF902F060FCD64988801E
:1022900002F05CFCD449888002F058FCD249888066
:1022A000084680884FF6FF7101EA0020CE498880F9
:1022B00002F04CFCCC4989880843CB498880084609
:1022C000808848F25251884203D147F28970C6494A
:1022D0008880C548808847F289718842D0D0D42050
:1022E00003F030F902F032FCBF49888002F02EFC86
:1022F000BD49888002F02AFCBB4988800846808856
:102300004FF6FF7101EA0020B749888002F01EFCF9
:10231000B54989880843B44988800846808845F2D1
:102320001031884262D055214FF4704003F024F9F7
:10233000AA214FF2010003F01FF952214FF20200CF
:1023400003F01AF908214FF2030003F015F90121F7
:102350004FF2040003F010F94FF4454003F0F2F897
:1023600002F0F4FBA0498880084680884FF6FF7190
:1023700001EA00209C4988804CF2015000E035E0E1
:1023800003F0E0F802F0E2FB974989880843964998
:102390008880052009F096FA9348808845F210510C
:1023A000884223D0A12003F0CDF802F0CFFB8E4964
:1023B000888002F0CBFB8C498880084680884FF6E5
:1023C000FF7101EA00208849888002F0BFFB86493E
:1023D00089880843844988800846808845F261716D
:1023E000884203D141F663107F4988807E48818806
:1023F0007EA0FDF7F9FF7C48808849F24131884290
:102400007ED1CF2003F09EF8002003F089F8C12090
:1024100003F086F8302003F083F8ED2003F092F803
:10242000642003F07DF8032003F07AF8122003F013
:1024300077F8812003F074F8E82003F083F8852012
:1024400003F06EF8102003F06BF87A2003F068F8C0
:10245000CB2003F077F8392003F062F82C2003F04A
:102460005FF8002003F05CF8342003F059F80220F4
:1024700003F056F8F72003F065F8202003F050F839
:10248000EA2003F05FF8002003F04AF8002003F090
:1024900047F8C02003F056F81B2003F041F8C12094
:1024A00003F050F8012003F03BF8C52003F04AF890
:1024B000302003F035F8302003F032F8C72003F065
:1024C00041F8B72003F02CF8362003F03BF8482001
:1024D00003F026F83A2003F035F8552003F020F8F1
:1024E000B12003F02FF8002003F01AF81A2003F0AF
:1024F00017F8B62003F026F80A2003F011F800E0E0
:10250000A8E0A22003F00CF8F22003F01BF8002052
:1025100003F006F8262003F015F8012003F000F878
:10252000E02003F00FF80F2002F0FAFF2A2002F05B
:10253000F7FF282002F0F4FF082002F0F1FF0E2040
:1025400002F0EEFF082002F0EBFF542002F0E8FF5B
:10255000A92002F0E5FF432002F0E2FF0A2002F08A
:10256000DFFF0F2002F0DCFF002002F0D9FF002087
:1025700002F0D6FF002002F0D3FF002002F0D0FFCF
:10258000E12002F0DFFF002002F0CAFF152002F078
:10259000C7FF172002F0C4FF072002F0C1FF11207F
:1025A00002F0BEFF062002F0BBFF2B2002F0B8FFB6
:1025B000562002F0B5FF3C2002F0B2FF052002F0E9
:1025C000AFFF102002F0ACFF0F2002F0A9FF3F2068
:1025D00002F0A6FF3F2002F0A3FF0FE00002300050
:1025E00000100140000C014014030020204C434423
:1025F0002049443A25780D0A000000000F2002F01F
:102600008FFF2B2002F09EFF002002F089FF0020A8
:1026100002F086FF012002F083FF3F2002F080FFDE
:102620002A2002F08FFF002002F07AFF002002F043
:1026300077FF002002F074FFEF2002F071FF1120FD
:1026400002F080FF782009F03DF9292002F07AFF9E
:1026500002F05FBAFE48808847F2897188427CD1D7
:10266000112002F06FFF782009F02CF9362002F0DB
:1026700069FF002002F054FF3A2002F063FF0520BA
:1026800002F04EFFB22002F05DFF0C2002F048FF86
:102690000C2002F045FF002002F042FF332002F040
:1026A0003FFF332002F03CFFB72002F04BFF352004
:1026B00002F036FFBB2002F045FF322002F030FF6F
:1026C000C02002F03FFF0C2002F02AFFC22002F0DF
:1026D00039FF012002F024FFC32002F033FF102055
:1026E00002F01EFFC42002F02DFF202002F018FF90
:1026F000C62002F027FF0F2002F012FFD02002F0C8
:1027000021FFA42002F00CFFA12002F009FFE0202D
:1027100002F018FFD02002F003FF002002F000FFBB
:10272000022002F0FDFE072002F0FAFE0A2002F06D
:10273000F7FE282002F0F4FE322002F0F1FE4420E1
:1027400002F0EEFE422002F0EBFE062002F0E8FE70
:102750000E2002F0E5FE122000E056E002F0E0FE5E
:10276000142002F0DDFE172002F0DAFEE12002F074
:10277000E9FED02002F0D4FE002002F0D1FE0220BB
:1027800002F0CEFE072002F0CBFE0A2002F0C8FEC7
:10279000282002F0C5FE312002F0C2FE542002F0D3
:1027A000BFFE472002F0BCFE0E2002F0B9FE1C2046
:1027B00002F0B6FE172002F0B3FE1B2002F0B0FEBE
:1027C0001E2002F0ADFE2A2002F0BCFE002002F026
:1027D000A7FE002002F0A4FE002002F0A1FEEF20E0
:1027E00002F09EFE2B2002F0ADFE002002F098FECB
:1027F000002002F095FE012002F092FE3F2002F040
:102800008FFE292002F09EFE22E79148808845F243
:102810001031884240F07C87ED2002F093FE0120C9
:1028200002F07EFEFE2002F07BFEEE2002F08AFE29
:10283000DE2002F075FE212002F072FEF12002F08F
:1028400081FE012002F06CFEDF2002F07BFE1020F2
:1028500002F066FEC42002F075FE8F2002F060FEDA
:10286000C62002F06FFE002002F05AFEE22002F0C5
:1028700057FEE22002F054FEE22002F051FEBF209B
:1028800002F060FEAA2002F04BFEB02002F05AFED9
:102890000D2002F045FE002002F042FE0D2002F065
:1028A0003FFE002002F03CFE112002F039FE002025
:1028B00002F036FE192002F033FE002002F030FE56
:1028C000212002F02DFE002002F02AFE2D2002F031
:1028D00027FE002002F024FE3D2002F021FE002011
:1028E00002F01EFE5D2002F01BFE002002F018FE2A
:1028F0005D2002F015FE002002F012FEB12002F071
:1029000021FE802002F00CFE002002F009FE8B2048
:1029100002F006FE002002F003FE962002F000FE08
:10292000002002F0FDFDB22002F00CFE002002F0BB
:10293000F7FD002002F0F4FD022002F0F1FD00207E
:1029400002F0EEFD032002F0EBFD002002F0E8FDB6
:10295000B32002F0F7FD002002F0E2FD002002F0BB
:10296000DFFD002002F0DCFD002002F0D9FD002098
:1029700002F0D6FD002002F0D3FD002002F0D0FDD1
:10298000002002F0CDFD002002F0CAFD002002F080
:10299000C7FD002002F0C4FD002002F0C1FD0020B0
:1029A00002F0BEFD002002F0BBFD002002F0B8FDE9
:1029B000002002F0B5FD002002F0B2FD002002F080
:1029C000AFFD002002F0ACFD002002F0A9FD0020C8
:1029D00002F0A6FD002002F0A3FD002002F0A0FD01
:1029E000002002F09DFDB42002F0ACFD8B2002F02F
:1029F00097FD002002F094FD962002F091FD00204A
:102A000002F08EFDA12002F08BFD002002F088FD77
:102A1000B52002F097FD022002F082FD002002F0B6
:102A20007FFD032002F07CFD002002F079FD0420F0
:102A300002F076FD002002F073FDB62002F082FD68
:102A4000002002F06DFD002002F06AFDB72001E0D9
:102A50001403002002F076FD002002F061FD00204A
:102A600002F05EFD3F2002F05BFD002002F058FD09
:102A70005E2002F055FD002002F052FD642002F0BD
:102A80004FFD002002F04CFD8C2002F049FD00209B
:102A900002F046FDAC2002F043FD002002F040FDB4
:102AA000DC2002F03DFD002002F03AFD702002F033
:102AB00037FD002002F034FD902002F031FD0020AF
:102AC00002F02EFDEB2002F02BFD002002F028FD8D
:102AD000DC2002F025FD002002F022FDB82002F0EB
:102AE00031FD002002F01CFD002002F019FD002045
:102AF00002F016FD002002F013FD002002F010FD90
:102B0000002002F00DFD002002F00AFD002002F07E
:102B100007FDBA2002F016FD242002F001FD00207E
:102B200002F0FEFC002002F0FBFC002002F0F8FCAA
:102B3000C12002F007FD202002F0F2FC002002F08C
:102B4000EFFC542002F0ECFC002002F0E9FCFF2036
:102B500002F0E6FC002002F0E3FCC22002F0F2FCEE
:102B60000A2002F0DDFC002002F0DAFC042002F072
:102B7000D7FC002002F0D4FCC32002F0E3FC3C2090
:102B800002F0CEFC002002F0CBFC3A2002F0C8FCA0
:102B9000002002F0C5FC392002F0C2FC002002F047
:102BA000BFFC372002F0BCFC002002F0B9FC3C2046
:102BB00002F0B6FC002002F0B3FC362002F0B0FCBC
:102BC000002002F0ADFC322002F0AAFC002002F04E
:102BD000A7FC2F2002F0A4FC002002F0A1FC2C2076
:102BE00002F09EFC002002F09BFC292002F098FCE1
:102BF000002002F095FC262002F092FC002002F05A
:102C00008FFC242002F08CFC002002F089FC2420A0
:102C100002F086FC002002F083FC232002F080FCFE
:102C2000002002F07DFC3C2002F07AFC002002F043
:102C300077FC362002F074FC002002F071FC322098
:102C400002F06EFC002002F06BFC2F2002F068FC0A
:102C5000002002F065FC2C2002F062FC002002F053
:102C60005FFC292002F05CFC002002F059FC2620C9
:102C700002F056FC002002F053FC242002F050FC2D
:102C8000002002F04DFC242002F04AFC002002F05B
:102C900047FC232002F044FC002002F041FCC42049
:102CA00002F050FC622002F03BFC002002F038FCF5
:102CB000052002F035FC002002F032FC842002F0F6
:102CC0002FFC002002F02CFCF02002F029FC002058
:102CD00002F026FC182002F023FC002002F020FC69
:102CE000A42002F01DFC002002F01AFC182002F0C3
:102CF00017FC002002F014FC502002F011FC002010
:102D000002F00EFC0C2002F00BFC002002F008FC8C
:102D1000172002F005FC002002F002FC952002F0D2
:102D2000FFFB002002F0FCFBF32002F0F9FB002087
:102D300002F0F6FBE62002F0F3FB002002F0F0FBCD
:102D4000C52002F0FFFB322002F0EAFB002002F077
:102D5000E7FB442002F0E4FB002002F0E1FB6520E9
:102D600002F0DEFB002002F0DBFB762002F0D8FB55
:102D7000002002F0D5FB882002F0D2FB002002F0F8
:102D8000CFFBC62002F0DEFB202002F0C9FB0020B2
:102D900002F0C6FB172002F0C3FB002002F0C0FBCC
:102DA000012002F0BDFB002002F0BAFBC72002F0B8
:102DB000C9FB002002F0B4FB002002F0B1FB0020B0
:102DC00002F0AEFB002002F0ABFBC82002F0BAFB21
:102DD000002002F0A5FB002002F0A2FB002002F080
:102DE0009FFB002002F09CFBC92002F0ABFB0020FF
:102DF00002F096FB002002F093FB002002F090FB13
:102E0000002002F08DFB002002F08AFB002002F07F
:102E100087FB002002F084FB002002F081FB0020F1
:102E200002F07EFB002002F07BFB002002F078FB2A
:102E3000002002F075FB002002F072FB002002F07F
:102E40006FFB002002F06CFB002002F069FBE02029
:102E500002F078FB162002F063FB002002F060FB1A
:102E60001C2002F05DFB002002F05AFB212002F042
:102E700057FB002002F054FB362002F051FB0020EB
:102E800002F04EFB462002F04BFB002002F048FB14
:102E9000522002F045FB002002F042FB642002F0C9
:102EA0003FFB002002F03CFB7A2002F039FB0020BF
:102EB00002F036FB8B2002F033FB002002F030FBE7
:102EC000992002F02DFB002002F02AFBA82002F03E
:102ED00027FB002002F024FBB92002F021FB002098
:102EE00002F01EFBC42002F01BFB002002F018FBC6
:102EF000CA2002F015FB002002F012FBD22002F0E3
:102F00000FFB002002F00CFBD92002F009FB00208F
:102F100002F006FBE02002F003FB002002F000FBC1
:102F2000F32002F0FDFA002002F0FAFAE12002F0AC
:102F300009FB162002F0F4FA002002F0F1FA1C203E
:102F400002F0EEFA002002F0EBFA222002F0E8FA9A
:102F5000002002F0E5FA362002F0E2FA002002F04A
:102F6000DFFA452002F0DCFA002002F0D9FA522004
:102F700002F0D6FA002002F0D3FA642002F0D0FA70
:102F8000002002F0CDFA7A2002F0CAFA002002F006
:102F9000C7FA8B2002F0C4FA002002F0C1FA99208F
:102FA00002F0BEFA002002F0BBFAA82002F0B8FA44
:102FB000002002F0B5FAB92002F0B2FA002002F0C7
:102FC000AFFAC42002F0ACFA002002F0A9FACA203D
:102FD00002F0A6FA002002F0A3FAD22002F0A0FA32
:102FE000002002F09DFAD82002F09AFA002002F0A8
:102FF00097FAE02002F094FA002002F091FAF32010
:1030000002F08EFA002002F08BFAE22002F09AFA27
:10301000052002F085FA002002F082FA0B2002F06F
:103020007FFA002002F07CFA1B2002F079FA0020DF
:1030300002F076FA342002F073FA002002F070FAFF
:10304000442002F06DFA002002F06AFA4F2002F0EC
:1030500067FA002002F064FA612002F061FA0020B1
:1030600002F05EFA792002F05BFA002002F058FAD2
:10307000882002F055FA002002F052FA972002F060
:103080004FFA002002F04CFAA62002F049FA002084
:1030900002F046FAB72002F043FA002002F040FAAC
:1030A000C22002F03DFA002002F03AFAC72002F0F6
:1030B00037FA002002F034FAD12002F031FA002071
:1030C00002F02EFAD62002F02BFA002002F028FAA5
:1030D000DD2002F025FA002002F022FAF32002F0AF
:1030E0001FFA002002F01CFAE32002F02BFA052060
:1030F00002F016FA002002F013FA0A2002F010FA89
:10310000002002F00DFA1C2002F00AFA002002F062
:1031100007FA332002F004FA002002F001FA4420FA
:1031200002F0FEF9002002F0FBF9502002F0F8F95D
:10313000002002F0F5F9622002F0F2F9002002F01E
:10314000EFF9782002F0ECF9002002F0E9F988208C
:1031500002F0E6F9002002F0E3F9972002F0E0F92E
:10316000002002F0DDF9A62002F0DAF9002002F0DA
:10317000D7F9B72002F0D4F9002002F0D1F9C2202B
:1031800002F0CEF9002002F0CBF9C72002F0C8F916
:10319000002002F0C5F9D12002F0C2F9002002F0AF
:1031A000BFF9D52002F0BCF9002002F0B9F9DD200A
:1031B00002F0B6F9002002F0B3F9F32002F0B0F902
:1031C000002002F0ADF9E42002F0BCF9012002F089
:1031D000A7F9002002F0A4F9012002F0A1F90020D3
:1031E00002F09EF9022002F09BF9002002F098F90B
:1031F0002A2002F095F9002002F092F93C2002F01A
:103200008FF9002002F08CF94B2002F089F90020A0
:1032100002F086F95D2002F083F9002002F080F9C7
:10322000742002F07DF9002002F07AF9842002F087
:1032300077F9002002F074F9932002F071F9002070
:1032400002F06EF9A22002F06BF9002002F068F99A
:10325000B32002F065F9002002F062F9BE2002F00E
:103260005FF9002002F05CF9C42002F059F9002057
:1032700002F056F9CD2002F053F9002002F050F987
:10328000D32002F04DF9002002F04AF9DD2002F0CF
:1032900047F9002002F044F9F32002F041F9002040
:1032A00002F03EF9E52002F04DF9002002F038F975
:1032B000002002F035F9002002F032F9002002F07F
:1032C0002FF9022002F02CF9002002F029F9292020
:1032D00002F026F9002002F023F93C2002F020F948
:1032E000002002F01DF94B2002F01AF9002002F034
:1032F00017F95D2002F014F9002002F011F9742092
:1033000002F00EF9002002F00BF9842002F008F917
:10331000002002F005F9932002F002F9002002F0EB
:10332000FFF8A22002F0FCF8002002F0F9F8B32028
:1033300002F0F6F8002002F0F3F8BE2002F0F0F8F8
:10334000002002F0EDF8C42002F0EAF8002002F0BC
:10335000E7F8CD2002F0E4F8002002F0E1F8D320F5
:1033600002F0DEF8002002F0DBF8DC2002F0D8F8F2
:10337000002002F0D5F8F32002F0D2F8002002F08D
:10338000CFF8E62002F0DEF8112002F0C9F80020A4
:1033900002F0C6F8342002F0C3F8002002F0C0F8B2
:1033A000562002F0BDF8002002F0BAF8762002F0B4
:1033B000B7F8002002F0B4F8772002F0B1F800204E
:1033C00002F0AEF8662002F0ABF8002002F0A8F898
:1033D000882002F0A5F8002002F0A2F8992002F05F
:1033E0009FF8002002F09CF8BB2002F099F8002022
:1033F00002F096F8992002F093F8002002F090F87D
:10340000662002F08DF8002002F08AF8552002F0C4
:1034100087F8002002F084F8552002F081F800209F
:1034200002F07EF8452002F07BF8002002F078F8E8
:10343000432002F075F8002002F072F8442002F0F8
:103440006FF8002002F06CF8E72002F07BF83220E1
:1034500002F066F8002002F063F8552002F060F8F0
:10346000002002F05DF8762002F05AF8002002F009
:1034700057F8662002F054F8002002F051F8672057
:1034800002F04EF8002002F04BF8672002F048F8F6
:10349000002002F045F8872002F042F8002002F0F8
:1034A0003FF8992002F03CF8002002F039F8BB20E8
:1034B00002F036F8002002F033F8992002F030F8DC
:1034C000002002F02DF8772002F02AF8002002F008
:1034D00027F8442002F024F8002002F021F85620BA
:1034E00002F01EF8002002F01BF8232002F018F86A
:1034F000002002F015F8332002F012F8002002F04C
:103500000FF8452002F00CF8002002F009F8E8203E
:1035100002F018F8002002F003F8002002F000F892
:10352000992001F0FDFF002001F0FAFF872001F053
:10353000F7FF002001F0F4FF882001F0F1FF0020E8
:1035400001F0EEFF772001F0EBFF002001F0E8FF33
:10355000662001F0E5FF002001F0E2FF882001F085
:10356000DFFF002001F0DCFFAA2001F0D9FF0020DE
:1035700001F0D6FFBB2001F0D3FF002001F0D0FF07
:10358000992001F0CDFF002001F0CAFF662001F074
:10359000C7FF002001F0C4FF552001F0C1FF00204B
:1035A00001F0BEFF552001F0BBFF002001F0B8FF85
:1035B000442001F0B5FF002001F0B2FF442001F0EB
:1035C000AFFF002001F0ACFF552001F0A9FF002063
:1035D00001F0A6FFE92001F0B5FFAA2001F0A0FF4D
:1035E000002001F09DFF002001F09AFF002001F073
:1035F00097FF002001F0A6FFAA2001F091FFCF2045
:1036000001F0A0FF002001F08BFF002001F088FFF7
:10361000002001F085FF002001F082FF002001F072
:103620007FFF002001F07CFF002001F079FF0020E7
:1036300001F076FF002001F073FF002001F070FF21
:10364000002001F06DFF002001F06AFF002001F072
:1036500067FF002001F064FF002001F061FF0020FF
:1036600001F05EFF002001F05BFFF02001F06AFF37
:10367000002001F055FF502001F052FF002001F022
:103680004FFF002001F04CFF002001F049FFF32024
:1036900001F058FF002001F043FFF92001F052FF34
:1036A000062001F03DFF102001F03AFF292001F033
:1036B00037FF002001F034FF3A2001F043FF55208E
:1036C00001F02EFF112001F03DFF642008F0FAF810
:1036D000292001F037FF352001F034FF002001F0F0
:1036E0001FFF512001F02EFFFF2001F019FF532092
:1036F00001F028FF2C2001F013FF552001F022FFDC
:10370000822001F00DFF2C2001F01CFF01F001BA16
:10371000FE48808845F2105188427DD155214FF4F2
:10372000704001F029FFAA214FF2010001F024FFAF
:1037300052214FF2020001F01FFF08214FF2030057
:1037400001F01AFF01214FF2040001F015FF0D21D5
:103750004FF4304001F010FF0D214BF2010001F059
:103760000BFF0D214BF2020001F006FF34214FF454
:10377000364001F001FF34214BF2016001F0FCFE04
:1037800034214BF2026001F0F7FE0D214FF431407D
:1037900001F0F2FE0D214BF2011001F0EDFE0D21C2
:1037A0004BF2021001F0E8FE34214FF4374001F0F3
:1037B000E3FE34214BF2017001F0DEFE34214BF2C6
:1037C000027001F0D9FE00214FF4324001F0D4FE26
:1037D00000214BF2012001F0CFFE00214BF202202C
:1037E00001F0CAFE24214FF4384001F0C5FE242127
:1037F0004BF6010001F0C0FE24214BF6020001F05F
:10380000BBFE01214FF43F4001F0B6FE0F214FF403
:10381000334001F0B1FE00E0FDE30F214BF2013037
:1038200001F0AAFE0F214BF2023001F0A5FE342177
:103830004FF4394001F0A0FE34214BF6011001F0A5
:103840009BFE34214BF6021001F096FE08214FF446
:10385000354001F091FE08214BF2015001F08CFE41
:1038600008214BF2025001F087FE03214FF4424041
:1038700001F082FE24214FF43A4001F07DFE242124
:103880004BF6012001F078FE24214BF6022001F0D6
:1038900073FE00214FF43C4001F06EFE78214BF6A0
:1038A000014001F069FE00214BF6024001F064FE88
:1038B00000214FF43D4001F05FFE78214BF60150AE
:1038C00001F05AFE00214BF6025001F055FE002196
:1038D0004FF43E4001F050FE64214BF6016001F0D0
:1038E0004BFE00214FF4514001F046FE33214DF2D2
:1038F000011001F041FE00214DF2021001F03CFEEA
:1039000034214DF2031001F037FE00214DF2041076
:1039100001F032FE3A214DF2051001F02DFE00219A
:103920004DF2061001F028FE4A214DF2071001F079
:1039300023FE00214DF2081001F01EFE5C214DF225
:10394000091001F019FE00214DF20A1001F014FED9
:1039500081214DF20B1001F00FFE00214DF20C10F1
:1039600001F00AFEA6214DF20D1001F005FE002126
:103970004DF20E1001F000FEE5214DF20F1001F0A6
:10398000FBFD01214DF2101001F0F6FD13214DF267
:10399000111001F0F1FD01214DF2121001F0ECFDCA
:1039A00054214DF2131001F0E7FD01214DF21410E6
:1039B00001F0E2FD82214DF2151001F0DDFD012143
:1039C0004DF2161001F0D8FDCA214DF2171001F08A
:1039D000D3FD02214DF2181001F0CEFD00214DF271
:1039E000191001F0C9FD02214DF21A1001F0C4FDB9
:1039F00001214DF21B1001F0BFFD02214DF21C1000
:103A000001F0BAFD34214DF21D1001F0B5FD022187
:103A10004DF21E1001F0B0FD67214DF21F1001F0B4
:103A2000ABFD02214DF2201001F0A6FD84214DF2E4
:103A3000211001F0A1FD02214DF2221001F09CFDA8
:103A4000A4214DF2231001F097FD02214DF2241024
:103A500001F092FDB7214DF2251001F08DFD0221FC
:103A60004DF2261001F088FDCF214DF2271001F014
:103A700083FD02214DF2281001F07EFDDE214DF282
:103A8000291001F079FD02214DF22A1001F074FD98
:103A9000F2214DF22B1001F06FFD02214DF22C109E
:103AA00001F06AFDFE214DF22D1001F065FD0321AC
:103AB0004DF22E1001F060FD10214DF22F1001F09B
:103AC0005BFD03214DF2301001F056FD33214DF224
:103AD000311001F051FD03214DF2321001F04CFD87
:103AE0006D214DF2331001F047FD00214FF452409B
:103AF00001F042FD33214DF2012001F03DFD002196
:103B00004DF2022001F038FD342101E014030020C1
:103B10004DF2032001F030FD00214DF2042001F0B0
:103B20002BFD3A214DF2052001F026FD00214DF23A
:103B3000062001F021FD4A214DF2072001F01CFD75
:103B400000214DF2082001F017FD5C214DF2092003
:103B500001F012FD00214DF20A2001F00DFD81213E
:103B60004DF20B2001F008FD00214DF20C2001F078
:103B700003FDA6214DF20D2001F0FEFC00214DF2C7
:103B80000E2001F0F9FCE5214DF20F2001F0F4FCCC
:103B900001214DF2102001F0EFFC13214DF2112014
:103BA00001F0EAFC01214DF2122001F0E5FC542164
:103BB0004DF2132001F0E0FC01214DF2142001F040
:103BC000DBFC82214DF2152001F0D6FC01214DF2E3
:103BD000162001F0D1FCCA214DF2172001F0CCFCD7
:103BE00002214DF2182001F0C7FC00214DF21920EE
:103BF00001F0C2FC02214DF21A2001F0BDFC0121AE
:103C00004DF21B2001F0B8FC02214DF21C2001F006
:103C1000B3FC34214DF21D2001F0AEFC02214DF227
:103C20001E2001F0A9FC67214DF21F2001F0A4FC29
:103C300002214DF2202001F09FFC84214DF2212031
:103C400001F09AFC02214DF2222001F095FCA42102
:103C50004DF2232001F090FC02214DF2242001F0CE
:103C60008BFCB7214DF2252001F086FC02214DF29C
:103C7000262001F081FCCF214DF2272001F07CFCB1
:103C800002214DF2282001F077FCDE214DF229209F
:103C900001F072FC02214DF22A2001F06DFCF221AC
:103CA0004DF22B2001F068FC02214DF22C2001F096
:103CB00063FCFE214DF22D2001F05EFC03214DF24C
:103CC0002E2001F059FC10214DF22F2001F054FC60
:103CD00003214DF2302001F04FFC33214DF2312011
:103CE00001F04AFC03214DF2322001F045FC6D2128
:103CF0004DF2332001F040FC00214FF4534001F01D
:103D00003BFC33214DF2013001F036FC00214DF235
:103D1000023001F031FC34214DF2033001F02CFC73
:103D200000214DF2043001F027FC3A214DF205301C
:103D300001F022FC00214DF2063001F01DFC4A2169
:103D40004DF2073001F018FC00214DF2083001F06F
:103D500013FC5C214DF2093001F00EFC00214DF204
:103D60000A3001F009FC81214DF20B3001F004FC16
:103D700000214DF20C3001F0FFFBA6214DF20D3079
:103D800001F0FAFB00214DF20E3001F0F5FBE521C8
:103D90004DF20F3001F0F0FB01214DF2103001F037
:103DA000EBFB13214DF2113001F0E6FB01214DF246
:103DB000123001F0E1FB54214DF2133001F0DCFB35
:103DC00001214DF2143001F0D7FB82214DF2153064
:103DD00001F0D2FB01214DF2163001F0CDFBCA21DA
:103DE0004DF2173001F0C8FB02214DF2183001F0FE
:103DF000C3FB00214DF2193001F0BEFB02214DF250
:103E00001A3001F0B9FB01214DF21B3001F0B4FB77
:103E100002214DF21C3001F0AFFB34214DF21D3078
:103E200001F0AAFB02214DF21E3001F0A5FB672133
:103E30004DF21F3001F0A0FB02214DF2203001F0C5
:103E40009BFB84214DF2213001F096FB02214DF2C3
:103E5000223001F091FBA4214DF2233001F08CFBC4
:103E600002214DF2243001F087FBB7214DF22530BD
:103E700001F082FB02214DF2263001F07DFBCF21C3
:103E80004DF2273001F078FB02214DF2283001F08D
:103E900073FBDE214DF2293001F06EFB02214DF261
:103EA0002A3001F069FBF2214DF22B3001F064FB66
:103EB00002214DF22C3001F05FFBFE214DF22D303E
:103EC00001F05AFB03214DF22E3001F055FB102179
:103ED0004DF22F3001F050FB03214DF2303001F054
:103EE0004BFB33214DF2313001F046FB03214DF203
:103EF000323001F041FB6D214DF2333001F03CFBDB
:103F000000214FF4544001F037FB33214DF20140C2
:103F100001F032FB00214DF2024001F02DFB342173
:103F20004DF2034001F028FB00214DF2044001F066
:103F300023FB3A214DF2054001F01EFB00214DF21A
:103F4000064001F019FB4A214DF2074001F014FB35
:103F500000214DF2084001F00FFB5C214DF20940B9
:103F600001F00AFB00214DF20A4001F005FB81211E
:103F70004DF20B4001F000FB00214DF20C4001F02E
:103F8000FBFAA6214DF20D4001F0F6FA00214DF2A8
:103F90000E4001F0F1FAE5214DF20F4001F0ECFA8C
:103FA00001214DF2104001F0E7FA13214DF21140CA
:103FB00001F0E2FA01214DF2124001F0DDFA542144
:103FC0004DF2134001F0D8FA01214DF2144001F0F6
:103FD000D3FA82214DF2154001F0CEFA01214DF2C3
:103FE000164001F0C9FACA214DF2174001F0C4FA97
:103FF00002214DF2184001F0BFFA00214DF21940A4
:1040000001F0BAFA02214DF21A4001F0B5FA01218D
:104010004DF21B4000E005E301F0AEFA02214DF243
:104020001C4001F0A9FA34214DF21D4001F0A4FA20
:1040300002214DF21E4001F09FFA67214DF21F4010
:1040400001F09AFA02214DF2204001F095FA842104
:104050004DF2214001F090FA02214DF2224001F090
:104060008BFAA4214DF2234001F086FA02214DF291
:10407000244001F081FAB7214DF2254001F07CFA8D
:1040800002214DF2264001F077FACF214DF2274070
:1040900001F072FA02214DF2284001F06DFADE21A2
:1040A0004DF2294001F068FA02214DF22A4001F058
:1040B00063FAF2214DF22B4001F05EFA02214DF23B
:1040C0002C4001F059FAFE214DF22D4001F054FA36
:1040D00003214DF22E4001F04FFA10214DF22F40F6
:1040E00001F04AFA03214DF2304001F045FA332144
:1040F0004DF2314001F040FA03214DF2324001F01F
:104100003BFA6D214DF2334001F036FA00214FF4B5
:10411000554001F031FA33214DF2015001F02CFAF3
:1041200000214DF2025001F027FA34214DF20350E4
:1041300001F022FA00214DF2045001F01DFA3A215B
:104140004DF2055001F018FA00214DF2065001F031
:1041500013FA4A214DF2075001F00EFA00214DF2F8
:10416000085001F009FA5C214DF2095001F004FAFF
:1041700000214DF20A5001F0FFF981214DF20B5060
:1041800001F0FAF900214DF20C5001F0F5F9A621E9
:104190004DF20D5001F0F0F900214DF20E5001F0FA
:1041A000EBF9E5214DF20F5001F0E6F901214DF256
:1041B000105001F0E1F913214DF2115001F0DCF93A
:1041C00001214DF2125001F0D7F954214DF2135054
:1041D00001F0D2F901214DF2145001F0CDF9822104
:1041E0004DF2155001F0C8F901214DF2165001F0C1
:1041F000C3F9CA214DF2175001F0BEF902214DF268
:10420000185001F0B9F900214DF2195001F0B4F93C
:1042100002214DF21A5001F0AFF901214DF21B506D
:1042200001F0AAF902214DF21C5001F0A5F9342148
:104230004DF21D5001F0A0F902214DF21E5001F087
:104240009BF967214DF21F5001F096F902214DF2C2
:10425000205001F091F984214DF2215001F08CF9A8
:1042600002214DF2225001F087F9A4214DF2235092
:1042700001F082F902214DF2245001F07DF9B721BD
:104280004DF2255001F078F902214DF2265001F04F
:1042900073F9CF214DF2275001F06EF902214DF252
:1042A000285001F069F9DE214DF2295001F064F93E
:1042B00002214DF22A5001F05FF9F2214DF22B500C
:1042C00001F05AF902214DF22C5001F055F9FE216E
:1042D0004DF22D5001F050F903214DF22E5001F016
:1042E0004BF910214DF22F5001F046F903214DF208
:1042F000305001F041F933214DF2315001F03CF9D9
:1043000003214DF2325001F037F96D214DF2335057
:1043100001F032F900214FF4564001F02DF933211C
:104320004DF2016001F028F900214DF2026001F028
:1043300023F934214DF2036001F01EF900214DF202
:10434000046001F019F93A214DF2056001F014F909
:1043500000214DF2066001F00FF94A214DF207608D
:1043600001F00AF900214DF2086001F005F95C2125
:104370004DF2096001F000F900214DF20A6001F0F0
:10438000FBF881214DF20B6001F0F6F800214DF2AF
:104390000C6001F0F1F8A6214DF20D6001F0ECF88F
:1043A00000214DF20E6001F0E7F8E5214DF20F60BB
:1043B00001F0E2F801214DF2106001F0DDF8132167
:1043C0004DF2116001F0D8F801214DF2126001F0B8
:1043D000D3F854214DF2136001F0CEF801214DF2D3
:1043E000146001F0C9F882214DF2156001F0C4F8A3
:1043F00001214DF2166001F0BFF8CA214DF217609D
:1044000001F0BAF802214DF2186001F0B5F8002170
:104410004DF2196001F0B0F802214DF21A6001F07E
:10442000ABF801214DF21B6001F0A6F802214DF21C
:104430001C6001F0A1F834214DF21D6001F09CF8E0
:1044400002214DF21E6001F097F867214DF21F60C6
:1044500001F092F802214DF2206001F08DF88421E4
:104460004DF2216001F088F802214DF2226001F046
:1044700083F8A4214DF2236001F07EF802214DF271
:10448000246001F079F8B7214DF2256001F074F84D
:1044900002214DF2266001F06FF8CF214DF2276026
:1044A00001F06AF802214DF2286001F065F8DE2182
:1044B0004DF2296001F060F802214DF22A6001F00E
:1044C0005BF8F2214DF22B6001F056F802214DF21B
:1044D0002C6001F051F8FE214DF22D6001F04CF8F6
:1044E00003214DF22E6001F047F810214DF22F60AC
:1044F00001F042F803214DF2306001F03DF8332124
:104500004DF2316001F038F803214DF2326001F0D4
:1045100033F86D214DF2336001F02EF855214FF440
:10452000704001F029F8AA214FF2010001F024F8AF
:1045300052214FF2020001F01FF808214FF2030050
:1045400001F01AF800214FF2040001F015F8CC2117
:104550004FF4314001F010F800214BF2011001F04E
:104560000BF805214FF4364001F006F870214FF4A6
:10457000374001F001F870214BF2017000F0FCFFB0
:1045800001214FF4384000F0F7FF03214BF6010002
:1045900000F0F2FF03214BF6020000F0EDFF0321D3
:1045A0004BF6030000F0E8FF02214FF43C4000F01E
:1045B000E3FF00214BF6014000F0DEFF00214BF647
:1045C000024000F0D9FFD0214FF4494000F0D4FF61
:1045D00002214CF6011000F0CFFF50214CF60210E2
:1045E00000F0CAFF50214CF6031000F0C5FF502127
:1045F0004CF6041000F0C0FF00214FF4545000F0BE
:10460000BBFF55214FF4685000F0B6FF4FF48850BF
:1046100000F098FF782007F075F94FF4245000F06F
:1046200091FF76E2FE48808841F663118842F8D116
:10463000E22000F087FF4FF48070FA4908614000E3
:1046400048611D20F84908608020F64948610861EA
:104650008000086140100861400048610220F24972
:1046600008608020EF4948610861800008614010BF
:104670000861400048610420EB4908608020E94956
:104680004861086180000861642007F03BF9E02080
:1046900000F058FF4FF48070E24908614000486123
:1046A0000120E14908608020DE49486108618000FE
:1046B00008610A2007F006F9E02000F043FF4FF4FC
:1046C0008070D8490861400048610320D6490860DD
:1046D0008020D44948610861800008610C2007F0FF
:1046E000F1F8012000F02EFF0A2007F0EBF8E62099
:1046F00000F028FF4FF48070CA490861400048610B
:104700002F20C94908608020C6494861086180009F
:1047100008614010086140004861FF20C2490860FC
:104720008020C0494861086180000861401008612C
:1047300040004861FF20BC4908608020B9494861B9
:10474000086180000861B02000F0FCFE4FF480702A
:10475000B4490861400048612020B34908608020C6
:10476000B04948610861800008614010086140005C
:1047700048610020AC4908608020AA49486108616E
:104780008000086140100861400048610320A6498C
:1047900008608020A34948610861800008614010DA
:1047A00008614000486140F21F309F490860802046
:1047B0009C49486108618000086140100861400020
:1047C0004861012098490860802096494861086145
:1047D00080000861401008614000486140F2DF102D
:1047E0009149086080208F49486108618000086114
:1047F000401008614000486100208B49086080201B
:1048000088494861086180000861B42000F09AFE80
:104810004FF4807083490861400048610420824958
:10482000086080207F49486108618000086140106D
:1048300008614000486140F21F407B4908608020C9
:1048400078494861086180000861401008614000B3
:1048500048610020744908608020724948610861FD
:104860008000086140100861400048612E206E49B8
:10487000086080206B494861086180000861401031
:104880000861400048610020674908608020654950
:10489000486108618000086140100861400048617B
:1048A00000206149086080205E49486108618000FD
:1048B0000861401008614000486100205A490860C2
:1048C00080205849486108618000086140100861F3
:1048D00040004861002054490860802051494861E7
:1048E000086180000861B62000F02CFE4FF4807053
:1048F0004C4908614000486102204B490860802013
:104900004849486108618000086140100861400022
:1049100048614FF403704449086080204149486170
:104920000861800008614010086140004861002073
:104930003D49086080203B4948610861800008616A
:104940004010086140004861172037490860802006
:1049500034494861086180000861401008614000E6
:10496000486115203049086080202E49486108615F
:1049700080000861401008614000486100202A4919
:104980000860802027494861086180000861401064
:1049900008614000486100202349086080202149C7
:1049A0004861086180000861F02000F0CBFD4FF401
:1049B00080701C4908614000486103201A49086062
:1049C000802018494861086180000861292000F0B2
:1049D000B9FDD02000F0B6FD4FF480701149086198
:1049E0004000486100201049086080200D4948615E
:1049F000086180000861BE2000F0A4FD4FF48070C3
:104A00000849086140004861052007490860802086
:104A1000044948610861800008614010086105E0B0
:104A200014030020001001400C0C014040004861BC
:104A3000FE203D49086080203C49486108618000B3
:104A40000861401008614000486101203649086053
:104A50008020364948610861800008614010086183
:104A60004000486100203049086080202F4948619B
:104A70000861800008614010086140004861002022
:104A8000294908608020294948610861800008613F
:104A900040100861400048610020234908608020E0
:104AA00022494861086180000861B82000F04AFD91
:104AB0004FF480701D4908614000486103201A4985
:104AC0000860802019494861086180000861401031
:104AD00008614000486101201349086080201349A3
:104AE0004861086180000861BA2000F02BFD4FF496
:104AF00080700E4908614000486101200A49086041
:104B000080200A494861086180000861642000F043
:104B10004DF80020FDF7C0F80120054908604FF668
:104B2000FF70FDF755F808BD0C0C01400010014066
:104B3000A801224210B50246012000E050430B1E9E
:104B4000A1F10104E1B2F9D110BD000000B54FF0B0
:104B5000883014490860091D0860002011490C3193
:104B6000086088151049086140004861402048618C
:104B700002202CF09AFB0B480830006883B24020DA
:104B800009490861C00008614FF0333005490860E9
:104B9000091D08604FF6FF7002490C310860184685
:104BA00000BD0000000C0140001001402DE9F04163
:104BB0000446BE2000F0C6FC4FF480702D49086109
:104BC0004000486105202C4908608020294948613F
:104BD000086180000861401008614000486120467B
:104BE00033F04CFC05464FF06632244B33F096FC14
:104BF000074633F0FFFB2049086080201D494861CB
:104C0000086180000861401008614000486101208F
:104C100019490860802017494861086180000861CF
:104C20004010086140004861FF201349086080205F
:104C30001049486108618000086140100861400027
:104C4000486100200C49086080200A4948610861D9
:104C5000800008614010086140004861002006495A
:104C60000860802003494861086180000861BDE850
:104C7000F0810000001001400C0C01406666044009
:104C8000F0B5054600240027E2488079012805D1C7
:104C9000E048808841F66311884208D1DD48807978
:104CA000F0B9DC48808841F66311884218D1082D9C
:104CB00015D2DFE805F00406080A0C0E10120625CE
:104CC0000DE007250BE0042509E0052507E0012597
:104CD00005E0002503E0032501E0022500BF00BF39
:104CE000082D1CD2DFE805F00406090C0F12151878
:104CF00000BF14E044F0800411E044F040040EE0F2
:104D000044F0C0040BE044F0200408E044F06004E8
:104D100005E044F0A00402E044F0E00400BF00BF5E
:104D2000BC48808845F21051884202D14FF4585750
:104D300000E03627B748808849F24131884205D0E3
:104D4000B448808847F28971884201D144F0080450
:104D50002146384600F010FCAE48808841F66311C9
:104D600088421DD004F0200068B1AA480088A949F3
:104D70004988884214DAA74806884088A5490880EF
:104D8000084646800CE0A3480088A249498888422A
:104D900006DDA048068840889E490880084646806F
:104DA0009C48808845F2105188427DD199494889B4
:104DB00000F0C8FB4FF480709749086140004861DB
:104DC000002096490860802093494861086180006E
:104DD000086190494989491C88B200F0B3FB4FF43F
:104DE00080708D4908614000486100208B4908604F
:104DF00080208949486108618000086185494989A6
:104E0000891C88B200F09EFB4FF4807082490861D3
:104E1000400048617F480088401E00127F490860BA
:104E200080207D494861086180000861794949898D
:104E3000C91C88B200F086FB4FF480707649086187
:104E40004000486173480078401EC0B27349086052
:104E50008020714948610861800008616D49888936
:104E600000F070FB4FF480706B49086140004861AE
:104E700000206A4908608020674948610861800015
:104E8000086164498989491C88B200F05BFB4FF4D2
:104E90008070614908614000486100205F490860F6
:104EA00080205D49486100E033E0086180000861CE
:104EB00058498989891C88B200F044FB4FF48070FE
:104EC000554908614000486152484088401E001220
:104ED000524908608020504948610861800008619B
:104EE0004C498989C91C88B200F02CFB4FF48070B2
:104EF000494908614000486146488078401EC0B278
:104F00004649086080204449486108618000086182
:104F10007FE04049488900F015FB4FF480703E491E
:104F200008614000486100203C49086080203A49FF
:104F300048610861800008614010086140004861D4
:104F400000203649086080203349486108618000AC
:104F5000086140100861400048612E480088401EEA
:104F600000122E49086080202B49486108618000AA
:104F70000861401008614000486126480078401EE2
:104F8000C0B226490860802023494861086180003A
:104F900008612049888900F0D5FA4FF480701E49D5
:104FA00008614000486100201C49086080201A49BF
:104FB0004861086180000861401008614000486154
:104FC000002016490860802013494861086180006C
:104FD000086140100861400048610E484088401E4A
:104FE00000120E49086080200B494861086180006A
:104FF0000861401008614000486106488078401E02
:10500000C0B20649086080200349486108618000F9
:105010000861F0BD14030020001001400C0C014099
:1050200010B503460C46B248808841F663118842A9
:105030007ED1AF48807900283FD1AD480088401E1E
:10504000C01A83B2AA49488900F07CFA4FF48070F4
:10505000A8490861400048610020A74908608020F5
:10506000A44948610861800008614010086140005F
:1050700048610020A049086080209E49486108617D
:1050800080000861401008614000486118129A4988
:1050900008608020974948610861800008614010DD
:1050A000086140004861D8B2934908608020914966
:1050B000486108618000086141E08D49488900F03D
:1050C00041FA4FF480708B49086140004861181222
:1050D000894908608020874948610861800008612B
:1050E0004010086140004861D8B2834908608020C0
:1050F00080494861086180000861401008614000F3
:1051000048617B480088401E00127B49086080206F
:1051100078494861086180000861401008614000DA
:10512000486173480078401EC0B27349086000E0CF
:1051300046E080206F4948610861800008616C4941
:10514000888900F0FFF94FF480706A4908614000D7
:1051500048612012684908608020664948610861FA
:10516000800008614010086140004861E0B2624977
:10517000086080205F494861086180000861401034
:105180000861400048615A484088401E00125A4950
:10519000086080205749486108618000086140101C
:1051A00008614000486152488078401EC0B25249B0
:1051B000086080204F49486108618000086196E0DE
:1051C0004B48808845F21051884250D1484948895F
:1051D00000F0B8F94FF4807046490861400048611A
:1051E00018124549086080204249486108618000E2
:1051F00008613F494989491C88B200F0A3F94FF47E
:1052000080703C49086140004861D8B23A49086062
:1052100080203849486108618000086134498889E4
:1052200000F090F94FF48070324908614000486105
:1052300020123149086080202E49486108618000B1
:1052400008612B498989491C88B200F07BF94FF429
:1052500080702849086140004861E0B22649086032
:105260008020244948610861800008613FE02049AE
:10527000488900F067F94FF480701E4908614000CA
:10528000486118121C49086080201A494861086169
:10529000800008614010086140004861D8B216499A
:1052A0000860802013494861086180000861104946
:1052B000888900F047F94FF480700E49086140007A
:1052C000486120120C49086080200A494861086141
:1052D000800008614010086140004861E0B2064962
:1052E000086080200349486108618000086110BDA2
:1052F00014030020001001400C0C01402DE9F84F70
:1053000080460E4617461C46B3462046E31704EB7C
:105310005373DB1021464FEAE47C04EB5C7C4FEADC
:10532000EC0CA4EBCC0CBCF1000F02D04FF0010C44
:1053300001E04FF0000C6344224604EBD27C4FEABC
:105340006C0C03FB0CF3DBB20093A7F12000C7B297
:10535000002556E00C2C07D107EB47002B4901EB49
:10536000800010F8059013E0102C05D1284800EBC0
:10537000071010F805900BE0182C07D107EBC700B9
:10538000244901EB800010F8059001E0BDE8F88F9A
:105390004FF0000A2FE009F0800030B11E4802886B
:1053A00031464046FCF7D4FD07E00A9828B91B486F
:1053B000028831464046FCF7CBFD4FEA49604FEA90
:1053C0001069701C86B216484088B04200DCDDE7E8
:1053D000A6EB0B00A0420AD15E4608F101001FFABD
:1053E00080F80F480088404500DCCFE706E00AF16E
:1053F000010000F0FF0ABAF1080FCCDB00BF681C07
:10540000C5B200988542A5DB00BFBFE72E91030817
:10541000A2950308929B0308200000202200002090
:10542000140300202DE9FF4F81B0074691461E4628
:105430000E9D4FF0000A002439E0301B401EC1B21F
:105440000A20FFF777FBB9FBF0F00A21B0FBF1F27D
:1054500001FB1208BAF1000F16D1701EA04213DD35
:10546000B8F1000F0ED10020AB4605EBDB714910FF
:1054700001FB0471009088B22B4620220299FFF7AD
:105480003DFF12E04FF0010A0020AB4605EBDB7157
:10549000491001FB0471009088B208F13001CAB2D2
:1054A0002B460299FFF72AFF00BF601CC4B2B4422A
:1054B000C3DB05B0BDE8F08F2DE9F84704460D4683
:1054C00090469946DDE9096704F0FF0A08EB0400FD
:1054D0001FFA80F809EB05001FFA80F916E0444531
:1054E00002DB5446A81985B24D4500DB14E00020CC
:1054F00000903A78334629462046FFF7FFFE3046B3
:1055000006EBD07104EB61018CB27F1C38787E28E9
:1055100002DC38782028E2DA00BFBDE8F887000016
:105520004FF48071054A11614900516104490860D6
:1055300080215161116189001161704700100140A3
:105540000C0C01404FF48071054A516149005161D2
:10555000044908608021516111618900116170471F
:10556000001001400C0C014000B502490889FFF70A
:10557000E9FF00BD1403002010B504460B46204689
:10558000FFF7E0FF4FF48070054908614000486173
:10559000044803608020486108618000086110BDF4
:1055A000001001400C0C014008B50121242000F03E
:1055B0003DFA4FF48070ADF8000010208DF8030024
:1055C00003208DF8020069460948FBF7A0FE4FF45E
:1055D00080710748FBF779FF0420ADF800006946A9
:1055E0000448FBF794FE04210248FBF76EFF08BD58
:1055F000000801400014014010B54FF480710B48C1
:10560000FBF758FF28B94FF480710848FBF75DFF9E
:105610000AE04FF480710548FBF74CFF012803D1E5
:1056200001020248FBF74FFF10BD000000080140D7
:1056300000BFFEE77047000070B5002100230F2275
:10564000C47804B3154C246804F4E064C4F5E06441
:10565000210AC1F10403CA40447804FA03F18478B2
:105660001440214309010E4C0678A155047804F03A
:105670001F050124AC4005786D11AD0005F1E02552
:10568000C5F8004109E0047804F01F050124AC408E
:10569000044D0678761145F8264070BD0CED00E00B
:1056A00000E400E080E100E002490143024A1160A9
:1056B000704700000000FA050CED00E01CB500206A
:1056C00001900121102000F0B1F90220ADF8000096
:1056D00048208DF8030003208DF8020069461E481B
:1056E000FBF715FE02211C48FBF7EFFE4FF40050BC
:1056F000ADF8000010208DF8030069461648FBF74E
:1057000006FE4FF400511448FBF7DFFEFBF71CFACE
:10571000002012490860642006F0D4F801201049E6
:10572000C1F8B401642006F0CDF8012000F042F980
:10573000012201A94FF4506000F01AF89DF80410FE
:1057400008A0FAF751FE9DF8040000F0800008B1AF
:1057500000201CBD0120FCE700100140B4012242E2
:10576000000022424354502049443A25780D0A0053
:105770002DE9F04105460F461646FBF791FAB22097
:10578000FBF760FAFBF7D4FA2812FBF75BFAFBF79A
:10579000CFFAE8B2FBF756FAFBF7CAFAFBF780FA42
:1057A000B320FBF74FFAFBF7C3FA00240BE0711E9E
:1057B000A14201D0012100E000210846FBF70EFACA
:1057C0003855601CC4B2B442F1DBFBF78DFABDE87A
:1057D000F08100002DE9F14F82B04FF0000AD3466E
:1057E0006C480078401C6B490870084600780A2114
:1057F00090FBF1F201FB120018B1664800780A280C
:105800007EDA012202A90020FFF7B2FF9DF808000E
:1058100000F01F00002873D09DF8080000F01F0062
:1058200040F0C0005C4981F820004FF0000A76E0AB
:10583000594890F82000012101FA0AF10840002897
:1058400069D0564931F81A00042201A9FFF790FFE8
:10585000514890F8300000F0010078B39DF807102F
:105860009DF8062001EB022032F0F1FD06464C4A7D
:105870004C4B32F053FE044632F0BCFD81B2464838
:10588000163020F81A109DF805109DF8042001EB41
:10589000022032F0DCFD0646434A444B32F03EFE25
:1058A00080460022424B32F06DFF044632F0A2FDEA
:1058B00081B239480C3020F81A102CE0FFE79DF82F
:1058C00007109DF8062001EB022032F0C0FD0646CD
:1058D000334A344B32F022FE044632F08BFD81B263
:1058E0002D480C3020F81A109DF805109DF8042062
:1058F00001EB022032F0ABFD06462B4A2B4B00E0B9
:105900001DE032F00BFE044632F074FD81B22248F5
:10591000163020F81A100AF1010000F0FF0ABAF15F
:10592000050F85DB4FF0010B1B48808920B91A4811
:10593000C08A08B9002002900020164908709DF81E
:10594000080000F01F00D0B9134890F8200000F0C4
:10595000800040B1104890F8200020F080000E49EF
:1059600081F820000BE04FF6FF700B498881C88258
:10597000084690F8200000F0E00081F8200005487B
:105980000078F02802DD0A20024908705846BDE878
:10599000FE8F00002400002028000020EEA803084D
:1059A0007B14AE47E17AD43FD881734694F6D23F58
:1059B0000000894038B50446002000900CB18020DA
:1059C0000090012269464FF4506000F001F838BDA4
:1059D0002DE9F04104460E4617464FF00008FBF74C
:1059E0005FF9B220FBF72EF9FBF7A2F92012FBF7C3
:1059F00029F9FBF79DF9E0B2FBF724F9FBF798F9D9
:105A000000250BE0705DFBF71DF9FBF791F980466F
:105A1000B8F1000F00D003E0681CC5B2BD42F1DB55
:105A200000BFFBF761F94046BDE8F08129B1064AA5
:105A300092690243044B9A6104E0034A92698243EB
:105A4000014B9A61704700000010024030B5002100
:105A50000022002400232D4D6D6805F00C0121B1BA
:105A6000042905D0082923D105E0294D056022E04D
:105A7000274D05601FE0254D6D6805F47012234D1C
:105A80006D6805F48034022505EB92421CB9214D66
:105A9000554305600BE01D4D6D6805F400351DB1E3
:105AA0001C4D5543056002E0194D5543056002E069
:105AB000174D056000BF00BF144D6D6805F0F00183
:105AC0000909154D6B5C0568DD4045600F4D6D683B
:105AD00005F4E061090A104D6B5C4568DD408560A6
